:020000040800F2
:10000000D8140020B5100008350400083704000893
:100010003B0400083F0400084304000800000000FF
:10002000000000000000000000000000470400087D
:1000300049040008000000004B0400084D040008BB
:10004000CF100008CF100008CF100008CF10000814
:10005000CF100008CF100008CF100008CF10000804
:10006000CF100008CF100008CF100008CF100008F4
:10007000CF100008CF100008CF100008CF100008E4
:10008000CF100008CF100008CF100008CF100008D4
:10009000CF100008CF100008CF100008CF100008C4
:1000A000CF100008CF100008CF100008CF100008B4
:1000B000CF100008DF060008CF100008CF1000089E
:1000C000CF100008CF100008CF100008CF10000894
:1000D000CF10000829100008CF100008FD06000806
:1000E000CF100008CF100008CF100008CF10000874
:1000F000CF100008CF100008CF100008CF10000864
:10010000CF100008CF100008CF100008CF10000853
:10011000CF100008CF100008CF100008CF10000843
:10012000CF100008CF100008CF100008CF10000833
:1001300000F002F800F04BF80AA090E8000C8244AE
:100140008344AAF10107DA4501D100F040F8AFF28B
:10015000090EBAE80F0013F0010F18BFFB1A43F0A5
:1001600001031847A0650000C0650000103A24BFD5
:1001700078C878C1FAD8520724BF30C830C144BF0C
:1001800004680C607047000000230024002500264E
:10019000103A28BF78C1FBD8520728BF30C148BFEA
:1001A0000B607047642905F00580782905F03E80D2
:1001B000002070471FB505F059FA04000020002107
:1001C00005F0EEFA401C60601FBD10B510BD05F0D3
:1001D00071FA1146FFF7EEFF00F05AF805F08FFABA
:1001E00003B4FFF7F2FF03BC00F0C4FE10B541F604
:1001F0001F41092000F046FA4FF4165000F08FFA24
:100200005548002101604160018103F0FEFE10BDF0
:1002100008B55248007870B3514800780A2824D1B4
:1002200000204F4908704F494F4800F04EFB102006
:10023000032300904C4802780021502000F09BFCE2
:100240001020032300904748027802214A2000F042
:1002500092FC642000F061FE434800783E49C1F8FA
:10026000020040480078C1F806003D480078401C74
:100270003B4908700BE0FFE73C48007810B93C4868
:10028000007820B10020394908703949087008BD4C
:10029000002400F005FE4FF4A06000F02BFF4FF4A7
:1002A000E13000F075FE00F0C3F9FFF79FFF00F0AA
:1002B0002BFD0CE000202F490860C82000F02DFE27
:1002C00001202D49C1F8B401C82000F026FE00F03D
:1002D00028FB0028EED12749086028A20021084603
:1002E00000F08BFC28A200216E2000F086FC27A2E3
:1002F0000221002000F081FC27A20221642000F0EE
:100300007CFC26A004F022FF32A004F01FFF3BA0DB
:1003100004F01CFF002003F08FFE00200F4908703E
:100320003DA004F013FF022003F086FE12E00B480C
:100330000078844201D009480478FFF769FF064835
:1003400004F09AF8C82000F0E8FD0A4800680A485E
:10035000D0F8B401EBE700001801002000000020F5
:100360000100002003000020020000200400002003
:1003700005000020B40122420000224254656D7045
:1003800065726174757265004300000048756D699F
:100390006469747900000000255248002D2D2D2D30
:1003A0002D2D2D2DBBFAD6C7D4C6494F542D444808
:1003B000543131CEC2CAAAB6C8BCECB2E2B1A8BEB2
:1003C000AFCAB5D1E92D2D2D2D2D2D2D2D2D2D0D76
:1003D0000A0000004B4559313A4169724C696E6B15
:1003E000C1ACBDD3C4A3CABD09204B45595F55500C
:1003F0003AB8B4CEBB0D0A0D0A0000005749464971
:10040000B8B4CEBBA3ACC7EBD6D8D0C2C5E4D6C374
:10041000C1ACBDD30D0A000057494649BDF8C8EB31
:100420004169724C696E6BC1ACBDD3C4A3CABD0D2A
:100430000A000000704700BFFEE700BFFEE700BFF4
:10044000FEE700BFFEE77047704770477047000047
:100450000CB50020019000906C48006840F480309A
:100460006A49086000BF6948006800F400300090E5
:100470000198401C0190009818B90198B0F5A06F40
:10048000F1D16248006800F4003010B10120009002
:1004900001E0002000900098012843D15C480068EA
:1004A00040F010005A4908600846006820F0030038
:1004B00008600846006840F0020008605348406841
:1004C000524948600846406848600846406840F421
:1004D000806048600846406820F47C104860084608
:1004E000406840F4E81048600846006840F08070BA
:1004F000086000BF4548006800F000700028F9D08F
:100500004248406820F0030040494860084640687F
:1005100040F00200486000BF3C48406800F00C001A
:100520000828F9D10CBD10B5FFF792FF10BD10B52A
:100530003648006840F001003449086008464068C9
:10054000344908403149486008460068324908404B
:100550002E4908600846006820F48020086008469C
:10056000406820F4FE0048604FF41F008860FFF7E9
:10057000DAFF4FF000602949086010BD10B5002176
:1005800000200022214B5B6803F00C0121B10429FB
:1005900006D0082928D107E0214B224C236027E010
:1005A0001F4B204C236023E0184B5B6803F4701052
:1005B000164B5B6803F48032022303EB904022B9B0
:1005C000194B4343174C23600DE0104B5B6803F459
:1005D000003323B1144B4343124C236003E0104B10
:1005E0004343104C236003E00D4B0E4C236000BFCF
:1005F00000BF064B5B68C3F303130C4CE15C094B73
:100600001B68CB40074C236010BD00000010024067
:10061000002002400000FFF8FFFFF6FE08ED00E0BA
:1006200000127A000800002000093D000C000020A4
:1006300008B50121182001F0E7F84FF47040ADF83B
:10064000000010208DF8030003208DF80200694699
:100650000A4800F01DFE4FF47041084800F0C5FE46
:100660004FF40050ADF800006946054800F010FE58
:100670004FF40051024800F0B8FE08BD000C0140E4
:10068000001001407FB505460C460121022001F013
:10069000C8F8ADF80850ADF804400020ADF80A00E5
:1006A000ADF8060001A9144801F0E6F9012211464F
:1006B000114801F058FD1D208DF8000000208DF834
:1006C000010003208DF8020001208DF80300684628
:1006D00000F015FD0121084801F02AFD7FBD10B58D
:1006E0000121054801F0EDFF28B10121024801F088
:1006F000F9FF02F0A6FA10BD0004004008B540F270
:100700002551304802F0B2F940B12E4802F02EF9DE
:10071000C0B200900121684602F066FB08BD10B52A
:1007200086B004460121082001F06EF801218804FA
:1007300001F077F8234801F0D9FF4FF48060ADF85D
:10074000100003208DF8120018208DF8130004A962
:100750001D4800F09DFD4FF40060ADF8100004202E
:100760008DF8130004A9184800F092FD00940020B1
:10077000ADF80400ADF80600ADF80800ADF80C00C7
:100780000C20ADF80A0069460E4801F0F2FF012185
:100790000C4802F07AF8012240F22551094802F093
:1007A00080F827208DF8140002208DF81500032012
:1007B0008DF8160001208DF8170005A800F09FFCA9
:1007C00006B010BD00480040000C014010B5624862
:1007D000006820F00F00604908600846006840F09B
:1007E0000300086000205D490860142000F095FBBC
:1007F00001205B49C1F880011E2000F06AFB10BD9A
:1008000010B500245448006820F00F0052490860D9
:100810000846006840F00800086004E0601CC4B2AC
:10082000012000F056FB4D488038006808B1642C68
:10083000F4DB642C01DB012010BD002404E0601C0B
:10084000C4B2012000F045FB44488038006808B974
:10085000642CF4DB642C01DB0120EDE70020EBE7E6
:1008600010B5002404E0601CC4B2012000F031FB8C
:100870003A488038006808B1642CF4DB002404E0B6
:10088000601CC4B2012000F024FB344880380068AA
:1008900008B9642CF4DB282000F01BFB2F488038BB
:1008A000006808B1012010BD0020FCE770B50024ED
:1008B000002506E06006040EFFF7D2FF0443681C23
:1008C000C5B2082DF6DB204670BD7CB505460E4648
:1008D000FFF77CFFFFF794FFF8B9002405E0FFF76E
:1008E000E5FF0DF80400601CC4B2052CF7DB9DF891
:1008F00000009DF8011008449DF8021008449DF87E
:10090000031008449DF80410884208D19DF80000A7
:1009100030709DF80200287001E001207CBD0020AD
:10092000FCE708B50121042000F06EFF0120ADF8BE
:10093000000010208DF8030003208DF802006946A6
:10094000084800F0A5FC0121034800F04EFDFFF728
:100950003DFFFFF755FF08BD00080140800121421F
:1009600000002142002001400A2105E000BF0A1ECC
:10097000A1F10103D9B2FAD1021EA0F10103D8B24C
:10098000F4D17047014606E042F6E06200E0521EF4
:10099000002AFCD1491E0029F6D1704708B5012173
:1009A000042000F031FFF820ADF8000010208DF891
:1009B000030003208DF802006946FE4800F068FC41
:1009C000F821FC4800F011FD08BD70B50446002573
:1009D00020E08021F74800F00AFD0120FFF7C4FF66
:1009E00004F0800020B14021F24800F0FEFC03E05A
:1009F0004021F04800F0FBFC6006040E0120FFF7E8
:100A0000B3FF8021EB4800F0F0FC0120FFF7ACFFC2
:100A1000681CC5B2082DDCDB70BD70B505460C4600
:100A200024B11021E34800F0E0FC03E01021E1488C
:100A300000F0DDFC0821DF4800F0D9FC2846FFF774
:100A4000C4FF0821DB4800F0D0FC1021D94800F099
:100A5000CCFC70BD70B504460D4605F1B001C8B2BE
:100A60000021FFF7DAFF04F00F000021FFF7D5FFA8
:100A7000102141EA14100021FFF7CFFF70BD10B51F
:100A800000218D20FFF7C9FF00211420FFF7C5FFCB
:100A90000021AF20FFF7C1FF10BD10B50021AE202F
:100AA000FFF7BBFF00218D20FFF7B7FF00211020CB
:100AB000FFF7B3FF10BD70B5002419E004F1B001D9
:100AC000C8B20021FFF7A9FF00210846FFF7A5FFE4
:100AD00000211020FFF7A1FF002505E001210020E3
:100AE000FFF79BFF681CC5B2802DF7DB601CC4B20A
:100AF000082CE3DB70BD2DE9F04107460E46904619
:100B000000250024A8F12000C5B27F2F02DD0027B8
:100B1000B01CC6B231463846FFF79CFF002408E0FF
:100B200004EB0511A44A505C0121FFF776FF601C1D
:100B3000C4B2082CF4DB701CC1B23846FFF78AFF40
:100B4000002409E004EB051108319B4A505C0121A7
:100B5000FFF763FF601CC4B2082CF3DBBDE8F08133
:100B600010B50246012000E050430B1EA1F1010424
:100B7000E1B2F9D110BD2DE9FF5F074691461D4650
:100B80000E9E4FF0000A002433E0281B401EC1B225
:100B90000A20FFF7E5FFB9FBF0F00A21B0FBF1F204
:100BA00001FB1208BAF1000F13D1681EA04210DD3C
:100BB000B8F1000F0BD1B34606EBDB71491001FB16
:100BC0000471C8B220220199FFF795FF0FE04FF0A2
:100BD000010AB34606EBDB71491001FB0471C8B290
:100BE00008F13001CAB20199FFF785FF00BF601C10
:100BF000C4B2AC42C9DBBDE8FF9F2DE9F041044619
:100C00000F46154600260EE0AA5D39462046FFF73E
:100C100072FF04F10800C4B2802C02DB0024B81C6F
:100C2000C7B2701CC6B2A85D0028EDD1BDE8F08146
:100C30002DE9F04180460E461546002731464046D4
:100C4000FFF708FF00240AE05C4A02EB8511085D0B
:100C50000121FFF7E2FE781CC7B2601CC4B2102C61
:100C6000F2DB701CC1B24046FFF7F4FE00240CE03A
:100C70006900491C514A02EB4111085D0121FFF74F
:100C8000CCFE781CC7B2601CC4B2102CF0DBBDE8EF
:100C9000F0812DE9F05F06460F4690461C46DDF8D0
:100CA00028A04FF0000BE11704EB5171C910A4EB21
:100CB000C10131B92046E11704EB5171C1F3C705F9
:100CC00006E02046E11704EB5171C910491CCDB272
:100CD0003D4615E029463046FFF7BCFEB1460BE025
:100CE00059460BF1010B1AF801000121FFF795FE9F
:100CF00009F1010000F0FF09C145F1DB681CC5B234
:100D0000A542E7DBBDE8F09F10B5FFF747FE2021C5
:100D1000284800F06AFB6420FFF734FE20212548B4
:100D200000F065FBC820FFF72DFE2021214800F0D0
:100D30005CFBC820FFF726FE0021AE20FFF76DFE0A
:100D400000212E20FFF769FE00210846FFF765FE0F
:100D500000211020FFF761FE00214020FFF75DFE1B
:100D60000021B020FFF759FE00218120FFF755FE3A
:100D70000021FF20FFF751FE0021A120FFF74DFECB
:100D80000021A620FFF749FE0021A820FFF745FE1D
:100D900000213F20FFF741FE0021C820FFF73DFE64
:100DA0000021D320FFF739FE00210846FFF735FE6A
:100DB000002105E000080140265F000816650008D4
:100DC000D520FFF72AFE00218020FFF726FE002114
:100DD000D820FFF722FE00210520FFF71EFE00218C
:100DE000D620FFF71AFE00210846FFF716FE002165
:100DF000D920FFF712FE0021F120FFF70EFE00219F
:100E0000DA20FFF70AFE00211220FFF706FE00217C
:100E1000DB20FFF702FE00213020FFF7FEFD00215E
:100E20008D20FFF7FAFD00211420FFF7F6FD0021C9
:100E3000A420FFF7F2FD0021A620FFF7EEFD002120
:100E4000AF20FFF7EAFDFFF736FE00210846FFF767
:100E500001FE10BD10B500212E20FFF7DEFD0021A0
:100E60002720FFF7DAFD00210846FFF7D6FD002115
:100E70000846FFF7D2FD00210846FFF7CEFD00210E
:100E80000120FFF7CAFD00210846FFF7C6FD00213B
:100E9000FF20FFF7C2FD00212F20FFF7BEFD10BD90
:100EA00010B56FF0040000F074F92E4800682E4968
:100EB000B0FBF1F02D4908700846007800EB4001C6
:100EC000C1EBC0104FF6FF7101EAC000284908804D
:100ED00010BD0146254A12784A434FF0E0235A617B
:100EE00000229A611A46126942F001021A6100BF9B
:100EF0004FF0E022106900F001021AB100F48032D4
:100F0000002AF5D04FF0E022126922F001024FF0E2
:100F1000E0231A6100229A6170470146144A128840
:100F20004A434FF0E0235A6100229A611A4612693F
:100F300042F001021A6100BF4FF0E022106900F098
:100F400001021AB100F48032002AF5D04FF0E022FD
:100F5000126922F001024FF0E0231A6100229A6127
:100F6000704700000800002000127A001C000020DA
:100F70001E00002000BF704700BF4A4A128802F0DE
:100F80004002002AF9D0C2B2464B1B1D1A8070479E
:100F900010B586B00446012144F2040000F034FC90
:100FA0004FF40070ADF8140003208DF816001820DF
:100FB0008DF8170005A93C4800F06AF94FF48060ED
:100FC000ADF8140004208DF8170005A9364800F08C
:100FD0005FF925208DF8000003208DF801008DF8C1
:100FE000020001208DF80300684600F088F80194A3
:100FF0000020ADF80800ADF80A00ADF80C00ADF81F
:1010000010000C20ADF80E0001A9264801F0B1FB3C
:10101000012240F22551234801F043FC01212148DF
:1010200001F033FC06B010BD10B540F225511D484B
:1010300001F01CFD10B31B4801F098FCC4B21B4822
:10104000008800F40040C8B91848008800F48040C7
:1010500060B10A2C03D000201449088020E0134816
:10106000008840F400401149088019E00D2C06D199
:101070000E48008840F480400C49088010E00B487E
:101080000088C0F30D000A490C5408480088401C31
:101090000649088008460088C72801DD002008802E
:1010A00010BD00000038014000080140240000206D
:1010B000500000200948804709480047FEE7FEE746
:1010C000FEE7FEE7FEE7FEE7FEE7FEE7FEE7FEE7F8
:1010D00004480549054A064B704700002F050008E3
:1010E00031010008D8020020D8140020D8040020C4
:1010F000D804002031490143314A1160704770B56E
:10110000002100230F22C47804B32D4C246804F47A
:10111000E064C4F5E064210AC1F10403CA404478E4
:1011200004FA03F18478144021430901254C067820
:10113000A155047804F01F050124AC4005786D1119
:10114000AD0005F1E025C5F8004109E0047804F0A0
:101150001F050124AC401C4D0678761145F8264049
:1011600070BD1A4A0A400243154B1B1F1A60704794
:1011700039B1134A121D12680243114B1B1D1A602C
:1011800006E00F4A121D126882430D4B1B1D1A60A8
:101190007047042808D14FF0E021096941F00401AB
:1011A0004FF0E022116107E04FF0E021096921F0E2
:1011B00004014FF0E0221161704700000000FA05C1
:1011C0000CED00E000E400E080E100E080FFFF1FA4
:1011D00010B50446CC48844208D10121042000F017
:1011E0002DFB0021042000F029FB46E0C748844283
:1011F00008D10121082000F021FB0021082000F087
:101200001DFB3AE0C248844208D10121102000F0C1
:1012100015FB0021102000F011FB2EE0BD48844298
:1012200008D10121202000F009FB0021202000F03E
:1012300005FB22E0B848844208D10121402000F09B
:10124000FDFA0021402000F0F9FA16E0B34884428C
:1012500008D10121802000F0F1FA0021802000F067
:10126000EDFA0AE0AE48844207D10121801500F072
:10127000E5FA0021A01500F0E1FA10BD10B501213A
:10128000084600F0DBFA0021012000F0D7FA10BD7B
:101290002DE9F0410246002500260020002300240D
:1012A000002791F803C00CF00F0591F803C00CF073
:1012B000100CBCF1000F03D091F802C04CEA0505F8
:1012C00091F800C0BCF1000F31D0146800202BE071
:1012D0004FF0010C0CFA00F3B1F800C00CEA030661
:1012E0009E4220D183004FF00F0C0CFA03F7BC4351
:1012F00005FA03FC4CEA040491F803C0BCF1280F82
:1013000006D14FF0010C0CFA00FCC2F814C00AE040
:1013100091F803C0BCF1480F05D14FF0010C0CFA55
:1013200000FCC2F810C0401C0828D1D31460B1F8EA
:1013300000C0BCF1FF0F34DD546800202EE000F146
:10134000080C4FF0010808FA0CF3B1F800C00CEAE1
:1013500003069E4221D183004FF00F0C0CFA03F7D5
:10136000BC4305FA03FC4CEA040491F803C0BCF149
:10137000280F05D100F1080C08FA0CF8C2F8148007
:1013800091F803C0BCF1480F07D100F1080C4FF0F1
:10139000010808FA0CF8C2F81080401C0828CED3C7
:1013A0005460BDE8F0814FF6FF7101800221817029
:1013B0000421C17070470246002093680B400BB1B6
:1013C000012000E0002070470146886880B2704725
:1013D00002460020D3680B400BB1012000E0002042
:1013E00070470146C86880B270470161704741612B
:1013F00070470AB1016100E041617047C160704708
:101400004FF480320A43826181618261826982691C
:10141000704702460020434B18684FF6807318400F
:1014200040EA021008433F4B186070473E49C861CC
:101430007047F0B50A46002300240021002500F083
:101440000046B6F1004F02D1364EF16901E0354E4B
:101450007168C0F3034583B200F44016B6F5401F2F
:1014600008D121F070612F4E766826F070662D4FFE
:101470007E6012E000F48016B6F5801F06D10326C8
:1014800006FA05F4A14341F0706106E0460D36010D
:1014900003FA06F6B14341F0706122B1460D360100
:1014A00003FA06F6314300F00046B6F1004F02D1D0
:1014B0001C4EF16101E01B4E7160F0BD30B50022A1
:1014C0008B071C0F0F2303FA04F2164B08338C1002
:1014D00053F824309343134C08348D1044F82530CE
:1014E00023468C1053F824308C07240F00FA04F4A0
:1014F00023430C4C08348D1044F8253030BD0A4984
:10150000DC3108607047000000080140000C014019
:10151000001001400014014000180140001C01406F
:10152000002001400000014000002042DF48006828
:1015300040F00100DD49086008464068DC49084089
:10154000DA49486008460068DA490840D749086027
:101550000846006820F4802008600846406820F4AF
:10156000FE0048604FF41F0088607047CF4909684B
:1015700021F48031CD4A11601146096821F480219F
:101580001160B0F5803F03D0B0F5802F0ED106E09A
:10159000C649096841F48031C44A116007E0C34973
:1015A000096841F4A021C14A116000E000BF00BFFA
:1015B000704710B501460022002300204A11012A7D
:1015C00002D1BA4C236806E0022A02D1B74C236A42
:1015D00001E0B64C636A01F01F02012494401C40F4
:1015E0000CB1012000E0002010BD38B500200090B3
:1015F0000024002500BF3120FFF7DBFF05460098DF
:10160000401C00900098B0F5A06F01D0002DF2D0E2
:101610003120FFF7CEFF08B1012400E0002420466E
:1016200038BD01460020A14A106820F0F80040EAC9
:10163000C10010607047A049086070470246002052
:101640009A4B586820F47C1042EA01031843974BE8
:101650005860704798490866704701460020934AD1
:10166000506820F003000843506070478F4840687E
:1016700000F00C007047014600208C4A506820F0B2
:10168000F00008435060704701460020874A5068C8
:1016900020F4E06008435060704701460020834A10
:1016A000506820F4605040EAC1005060704729B192
:1016B0007E4A527A02437D4B5A7204E07B4A527A48
:1016C00082437A4B5A7270477B49D8310860704721
:1016D00001460020754A506820F44040084350609D
:1016E00070470021714A20321170704A82F8201030
:1016F000012802D004280AD104E001216B4A2032DB
:10170000117005E00521694A2032117000E000BF28
:1017100000BF70476949086070476449096A01431E
:10172000624A11627047654944390860704730B5B4
:1017300000210022002400235C4D6D6805F00C019F
:1017400021B1042905D0082923D105E05C4D0560AD
:1017500022E05B4D05601FE0544D6D6805F470128A
:10176000524D6D6805F48034022505EB92421CB998
:10177000544D554305600BE04C4D6D6805F4003544
:101780001DB1504D5543056002E04D4D5543056078
:1017900002E04B4D056000BF00BF444D6D6805F091
:1017A000F0010909484D6B5C0568DD4045603F4D1F
:1017B0006D6805F4E061090A434D6B5C4568DD40E6
:1017C00085603A4D6D6805F46051C90A3E4D6B5C09
:1017D0004568DD40C560354D6D6805F44041890BB5
:1017E0003A4D6B5CC568B5FBF3F5056130BD29B1B9
:1017F0002E4A526902432D4B5A6104E02B4A52692A
:1018000082432A4B5A61704729B1284A92690243A0
:10181000264B9A6104E0254A92698243234B9A61E0
:10182000704729B1214AD2690243204BDA6104E0B2
:101830001E4AD26982431D4BDA61704729B11B4AA7
:10184000D2680243194BDA6004E0184AD268824336
:10185000164BDA60704729B1144A12690243134BE0
:101860001A6104E0114A12698243104B1A617047F1
:1018700012494039086070470F49C86470470B49E6
:10188000C87170470948406A40F080700749486253
:10189000704701460020054A92680A400AB10120BB
:1018A00000E0002070470149887270470010024034
:1018B0000000FFF8FFFFF6FE0000424280044242B3
:1018C00000127A0000093D002600002036000020AA
:1018D00010B50446FE48844208D10121C014FFF728
:1018E000ADFF0021E014FFF7A9FFC4E0B4F1804F81
:1018F00008D101210846FFF7AEFF00210120FFF7C4
:10190000AAFFB8E0F348844208D101210220FFF782
:10191000A2FF00210220FFF79EFFACE0EE488442C8
:1019200008D101210420FFF796FF00210420FFF7D2
:1019300092FFA0E0E948844208D101210820FFF786
:101940008AFF00210820FFF786FF94E0E4488442E4
:1019500008D101211020FFF77EFF00211020FFF7A2
:101960007AFF88E0DF48844208D101212020FFF778
:1019700072FF00212020FFF76EFF7CE0DA488442EE
:1019800008D101214014FFF759FF00216014FFF72F
:1019900055FF70E0D548844209D10121C804FFF702
:1019A0004DFF00214FF40020FFF748FF63E0D048CF
:1019B000844209D101210805FFF740FF00214FF4BF
:1019C0008010FFF73BFF56E0CA48844209D101214D
:1019D0004805FFF733FF00214FF40010FFF72EFFFB
:1019E00049E0C548844208D101214020FFF733FF78
:1019F00000214020FFF72FFF3DE0C048844208D17E
:101A000001218020FFF727FF00218020FFF723FF1F
:101A100031E0BB48844208D101218015FFF71BFF4C
:101A20000021A015FFF717FF25E0B648844209D131
:101A300001210804FFF702FF00214FF48030FFF777
:101A4000FDFE18E0B048844209D101214804FFF7A7
:101A5000F5FE00214FF40030FFF7F0FE0BE0AB483D
:101A6000844208D101218804FFF7E8FE00214FF4E9
:101A70008020FFF7E3FE10BD00220288944B9842BD
:101A80000ED0994B98420BD0B0F1804F08D0914BBB
:101A9000984205D0904B984202D0904B984204D186
:101AA0004FF68F731A404B881A438D4B984207D0DC
:101AB0008C4B984204D04FF6FF431A40CB881A4310
:101AC00002808B8883850B880385814B98420BD0DD
:101AD000854B984208D08B4B984205D08A4B984250
:101AE00002D08A4B984201D10B7A0386012383826C
:101AF000704770B5002400220023058C4FF6FE7657
:101B000035400584028C8388048B4FF68F752C40FA
:101B1000B51E2C400D882C43751E2A400D892A4382
:101B20004D882A436A4DA8420BD06F4DA84208D079
:101B3000744DA84205D0744DA84202D0734DA842FE
:101B400013D14FF6F7752A404D892A434FF6FB759E
:101B50002A408D882A434FF6FF652B404FF6FF55EC
:101B60002B408D892B43CD892B4383800483CD88E3
:101B70008586028470BD70B5002400220023058C88
:101B80004FF6EF7635400584028C8388048B48F647
:101B9000FF752C404FF6FF452C400D884FF6FF7621
:101BA00006EA05252C434FF6DF752A400D8906EA23
:101BB00005152A434D8806EA05152A43444DA842D7
:101BC00002D0494DA8421DD14FF67F752A404D895C
:101BD0004FF6FF7606EA05152A434FF6BF752A40F1
:101BE0008D8806EA05152A434FF6FF352B404FF244
:101BF000FF752B408D8906EA85052B43CD8906EAC2
:101C000085052B4383800483CD880587028470BDBE
:101C100070B5002400220023058C4FF6FF66354086
:101C20000584028C8388848B4FF68F752C404FF689
:101C3000FC752C400D882C434FF6FF552A400D892A
:101C40004FF6FF7606EA05252A434D8806EA052564
:101C50002A431F4DA84202D0234DA8421DD14FF266
:101C6000FF752A404D894FF6FF7606EA05252A437F
:101C70004FF6FF352A408D8806EA05252A434EF6A1
:101C8000FF752B404DF6FF752B408D8906EA051533
:101C90002B43CD8906EA05152B4383808483CD88A9
:101CA0008587028470BD70B5002200230024058C56
:101CB0004EF6FF7635400584038C8488828B48F687
:101CC000FF752A404FF6FF452A400D8820E00000AE
:101CD000002C01400004004000080040000C0040BF
:101CE000001000400014004000340140004C01404E
:101CF000005001400054014000180040001C00400A
:101D000000200040004001400044014000480140E4
:101D10004FF6FF7606EA05252A434DF6FF752B4060
:101D20000D8906EA05352B434D8806EA05352B4318
:101D3000FA4DA84202D0FA4DA84208D14BF6FF75E1
:101D40002C408D894FF6FF7606EA85152C4384805A
:101D50008283CD88A0F84050038470BD828B4FF2FF
:101D6000FF331A408283828B4FF6FF7303EA01230D
:101D70001A4382837047F0B50C46154600220021B5
:101D80000026078C4EF6FF7C07EA0C070784828B3F
:101D9000018C4FF6FF7707EA043640F6FF473A40DA
:101DA0004FF6FF7707EA05273A434FF6FF7707EA32
:101DB00003373A43D94FB8420ED0D94FB8420BD06F
:101DC000B0F1804F08D0D74FB84205D0D64FB842B7
:101DD00002D0D64FB84206D14DF6FF77394046F4CF
:101DE0008057394305E047F6FF57394044F48057A0
:101DF000394382830184F0BD828B4FF6F3731A401E
:101E00008283828B0A4382837047F0B50C46154665
:101E1000002200210026078C4FF6FF6C07EA0C0712
:101E20000784828B018C4FF6FF7707EA04264FF672
:101E30000C773A404FF6FF7707EA03172F433A43F0
:101E4000B64FB8420ED0B64FB8420BD0B0F1804F6B
:101E500008D0B44FB84205D0B34FB84202D0B34F08
:101E6000B84206D14FF6FF57394046F480773943E0
:101E700005E04FF2FF57394044F4807739438283BD
:101E80000184F0BD028B4FF2FF331A400283028BB4
:101E90004FF6FF7303EA01231A4302837047F0B53C
:101EA0000C461546002200210026078C4FF6EF7CD9
:101EB00007EA0C070784028B018C4FF6FF7707EACD
:101EC000041640F6FF473A404FF6FF7707EA03371C
:101ED0003A434FF6FF7707EA05273A438F4FB84258
:101EE0000ED08F4FB8420BD0B0F1804F08D08D4F3D
:101EF000B84205D08C4FB84202D08C4FB84206D1C0
:101F00004FF6DF77394046F01007394305E04FF6CA
:101F10005F77394044F01007394302830184F0BDF4
:101F2000028B4FF6F3731A400283028B0A4302833B
:101F30007047F0B50C46154600220021068C4FF67E
:101F4000FE773E400684028B018C4FF60C763240C1
:101F50007E1C06EA03162E433243704EB0420ED06A
:101F60006F4EB0420BD0B0F1804F08D06D4EB042F2
:101F700005D06D4EB04202D06C4EB04206D14FF645
:101F8000FD76314044F00106314305E04FF6F57629
:101F9000314044F00106314302830184F0BD70B545
:101FA00005460C465D4885420ED05D4885420BD003
:101FB000B5F1804F08D05B48854205D05A4885422C
:101FC00002D05A48854200D100E000BF208850B9B5
:101FD0002389A28861882846FFF7ABFFE18828465D
:101FE000FFF79EFF25E0208804280AD12389A288D4
:101FF00061882846FFF753FFE1882846FFF742FF34
:1020000017E0208808280AD12389A28861882846F9
:10201000FFF7FBFEE1882846FFF7EEFE09E0238983
:10202000A28861882846FFF7A6FEE1882846FFF7C8
:1020300095FE70BD2DE9F04105460C4600260127AE
:10204000608808B9022600E00026A088012801D196
:10205000022700E001272088A0B92389A28861888F
:102060002846FFF766FFE1882846FFF759FF2389D6
:102070003A4631462846FFF712FFE1882846FFF727
:1020800001FF13E02389A28861882846FFF707FF34
:10209000E1882846FFF7F6FE23893A46314628466E
:1020A000FFF747FFE1882846FFF73AFFBDE8F081D8
:1020B0000A884B881A438B881A43CB881A430B89AA
:1020C0001A434B891A438B891A43A0F8442070475E
:1020D0004FF6FF71818000210180C1804180017233
:1020E00070470021018041808180C1800181418150
:1020F0008181C1817047002101804180012181805F
:102100000021C180018170470021018041808180D0
:10211000C18001814181818170470000002C014014
:10212000003401400004004000080040000C004062
:1021300021B1028842F00102028004E002884FF6D9
:10214000FE731A400280704731B1B0F8442042F467
:102150000042A0F8442005E0B0F84420C2F30E028B
:10216000A0F8442070471AB183890B43838102E0B1
:1021700083898B43838170478182704741EA0203E0
:10218000A0F8483070471AB183890B43838102E07D
:1021900083898B438381704701894FF6F872114020
:1021A000018170470A46002101894FF68F7319405B
:1021B00011430181704730B504460D46294620463B
:1021C000FFF7F0FF208940F00700208130BD2DE9A6
:1021D000F04104460D4616461F46602D06D13B468B
:1021E000012231462046FFF75AFE05E03B46012218
:1021F00031462046FFF79DFE29462046FFF7D2FFD5
:10220000208940F007002081BDE8F08130B50C4600
:1022100000210189C9B24FF6FF7505EA0325154370
:1022200025432943018130BD2DE9F04105460E4685
:1022300017469846002443463A4631462846FFF75B
:10224000E5FF2C894FF6F870044044F007044FF680
:102250008F70044044F070042C81BDE8F081F0B52B
:1022600004460D4616461F463B4632462946204642
:10227000FFF7CCFF208940F480402081F0BD01852C
:10228000828270470A46002101884FF68F731940F9
:10229000114301807047F0B50C4615461E460021DB
:1022A000002200230189028B038C4FF6F877394016
:1022B00021434FF6FC473A4040F201173A434FF6AC
:1022C000DD773B404FF6FF7707EA06172F433B4386
:1022D000018102830384F0BD0A460021018B4FF681
:1022E0008F7319401143018370470A460021018B07
:1022F00048F6FF7319404FF6FF7303EA02231943B0
:10230000018370470A460021818B4FF68F73194075
:102310001143818370470A460021818B48F6FF7381
:1023200019404FF6FF7303EA022319438183704774
:1023300021B1028842F08002028004E002884FF658
:102340007F731A400280704721B1828842F00402F4
:10235000828004E082884FF6FB731A4082807047C7
:1023600021B1828842F00802828004E082884FF620
:10237000F7731A408280704721B1828842F00102CF
:10238000828004E082884FF6FE731A408280704794
:102390000A460021018B4FF6F77319401143018360
:1023A00070470A460021018B4FF2FF7319404FF628
:1023B000FF7303EA02231943018370470A46002191
:1023C000818B4FF6F77319401143818370470A469A
:1023D0000021818B4FF2FF7319404FF6FF7303EA20
:1023E00002231943818370470A460021018B4FF66F
:1023F000FB7319401143018370470A460021018B8A
:102400004FF6FF3319404FF6FF7303EA02231943D7
:10241000018370470A460021818B4FF6FB731940F8
:102420001143818370470A460021818B4FF6FF33A9
:1024300019404FF6FF7303EA022319438183704763
:102440000A460021018B4FF67F7319401143018327
:1024500070470A460021018BC1F30E014FF6FF734E
:1024600003EA02231943018370470A460021818B46
:102470004FF67F7319401143818370470A4600214C
:10248000818BC1F30E014FF6FF7303EA0223194358
:10249000818370470A460021018C4FF6FD73194075
:1024A0001143018470470A460021018C4FF6F773EF
:1024B00019401143018470470A460021018C4FF6F0
:1024C000DF7319404FF6FF7303EA021319430184C7
:1024D00070470A460021018C4FF67F7319404FF672
:1024E000FF7303EA02131943018470470A4600216F
:1024F000018C4FF6FF5319404FF6FF7303EA022396
:102500001943018470470A460021018C4FF2FF7382
:1025100019404FF6FF7303EA022319430184704701
:102520000A460021018C4DF6FF7319404FF6FF73E8
:1025300003EA023319430184704730B500230124B4
:102540008C40A3B2048C9C430484048C02FA01F5F1
:10255000ADB22C43048430BD30B5002304248C403C
:10256000A3B2048C9C430484048C02FA01F5ADB23E
:102570002C43048430BD70B5034600200024184667
:10258000183001258D40ACB21D8CA5431D8409B1C6
:10259000082909D100EB6100056825F07005056088
:1025A0000568154305600EE00D1FC5F34E05284470
:1025B000056825F4E045056005684FF6FF7606EAF4
:1025C00002263543056070BD21B1028842F0020247
:1025D000028004E002884FF6FD731A4002807047C3
:1025E00021B1028842F00402028004E002884FF622
:1025F000FB731A400280704721B1828842F080024A
:10260000828004E082884FF67F731A408280704790
:1026100002884FF6F7731A40028002880A4302804C
:10262000704782884FF68F731A40828082880A43EF
:102630008280704702894FF6F8731A40028102893E
:102640000A430281704702894FF67F731A40028164
:1026500002890A43028170478184704781857047EF
:10266000818670470187704781877047A0F84010C6
:10267000704702884FF6FF431A40028002880A43DF
:10268000028070470146888E70470146088F704768
:102690000146888F70470146B1F8400070470146F7
:1026A000888C70470146088D704702460020138AC7
:1026B0000B400BB1012000E000207047CA430282AA
:1026C000704730B50246002000230024158A05EA31
:1026D0000103958905EA010413B10CB1012000E062
:1026E000002030BDCA4302827047000010B5044686
:1026F000FB48844209D101218803FFF79FF800219C
:102700004FF48040FFF79AF832E0F648844209D14E
:1027100001214804FFF79FF800214FF40030FFF734
:102720009AF825E0F048844209D101218804FFF796
:1027300092F800214FF48020FFF78DF818E0EB4865
:10274000844209D10121C804FFF785F800214FF424
:102750000020FFF780F80BE0E548844208D1012112
:102760000805FFF778F800214FF48010FFF773F8A1
:1027700010BD2DE9F04786B005460E460024A2465E
:1027800000BFA1460027B08900B100BF2F462C8AA8
:102790004CF6FF700440F08804432C82AC894EF65E
:1027A000F3100440B0883189084371890843044319
:1027B000AC81AC8A4FF6FF400440B0890443AC8240
:1027C00001A8FEF7B4FFC648874202D1DDF810A089
:1027D00001E0DDF80CA0A88900F4004040B10AEB4C
:1027E000CA0000EB0A1031684900B0FBF1F807E0BD
:1027F0000AEBCA0000EB0A1031688900B0FBF1F85F
:102800006420B8FBF0F004012009642101FB108969
:10281000A88900F4004040B1322000EBC900B0FBB1
:10282000F1F000F00700044308E0322000EB09104B
:102830006421B0FBF1F000F00F0004432C8106B0DE
:10284000BDE8F0874FF41651016000218180C180FE
:1028500001810C21418100218181704710B5024620
:102860000020108A4FF2FF0318400B884C88234346
:102870008C882343CC8823431843108210BD002149
:10288000018041808180C180704721B1828942F4FA
:102890000052828104E082894DF6FF731A408281E2
:1028A0007047F0B50346002400260025002040F6BE
:1028B0006A17B94200D100BF1846C1F3421401F0B3
:1028C0001F06012707FA06F5012C01D10C3004E0A0
:1028D000022C01D1103000E014301AB107682F43E8
:1028E000076002E00768AF430760F0BD1AB1838A52
:1028F0000B43838202E0838A8B4383827047028A80
:102900004FF6F0731A400282028A0A43028270472D
:1029100082894FF2FF731A40828182890A43828141
:10292000704721B1828942F00202828104E08289EB
:102930004FF6FD731A4082817047028A4FF6DF73AB
:102940001A400282028A0A430282704721B1028A37
:1029500042F48042028204E0028A4BF6FF731A407E
:1029600002827047C1F3080282807047014688885E
:10297000C0F308007047818941F0010181817047EF
:10298000028BD2B20283028B42EA01220283704799
:10299000028B02F47F420283028B0A430283704758
:1029A00021B1828A42F02002828204E0828A4FF6BC
:1029B000DF731A408282704721B1828A42F010028E
:1029C000828204E0828A4FF6EF731A408282704757
:1029D00021B1828A42F00802828204E0828A4FF6A4
:1029E000F7731A408282704721B1828942F4004213
:1029F000828103E08289C2F30E028281704721B195
:102A0000828A42F40062828204E0828A4FF2FF737B
:102A10001A4082827047828A4FF6FB731A40828284
:102A2000828A0A438282704721B1828A42F002027E
:102A3000828204E0828A4FF6FD731A4082827047D8
:102A400002460020B1F5007F00D100BF13880B4083
:102A50000BB1012000E00020704701F40072B2F5D4
:102A6000007F00D100BFCA430280704770B50246A4
:102A7000002400230025002040F66A16B14200D150
:102A800000BFC1F3421501F01F03012606FA03F34C
:102A9000012D02D19689334006E0022D02D1168A1B
:102AA000334001E0968A33400C12012606FA04F402
:102AB0001688344013B10CB1012000E0002070BD35
:102AC00010B50022002340F66A14A14200D100BFD5
:102AD0000A1201249440A3B2DC43048010BD00001C
:102AE000003801400044004000480040004C0040D5
:102AF000005000402DE9FF5F07460D4693464FF01A
:102B000000082E46A9462C46AA4607B125B94FF023
:102B1000FF3004B0BDE8F09F4FF0000885E0781C5E
:102B200010F8080013287AD2DFE800F04647487909
:102B300079494A4B4F79797979535D6C590A270065
:102B40003078684908700846017867A002F0FEFAFC
:102B500064480078012807D100206949086069A20B
:102B60000421FEF74AF807E001206549086068A2E1
:102B700004210020FEF741F852E07078594948706E
:102B80000846417865A002F0E1FA564840780128ED
:102B900008D100205A49091D086067A20621FEF7E6
:102BA0002CF808E001205649091D086065A206219D
:102BB0000020FEF722F833E032E031E030E02FE091
:102BC0002EE00120624908702AE000206049087068
:102BD00026E099F800105FA002F0B8FA20E060A0AB
:102BE00002F0B4FA1CE0A17962792379A068CDE9FA
:102BF0000032CDE90210E378A27821885DA002F0CE
:102C0000A5FA0DE066A002F0A1FA6AA002F09EFA11
:102C10009AF800106BA002F099FA01E0FFE700BFFC
:102C200000BF08F1010000F0FF08387840453FF789
:102C300076AF00206DE72B480021016041600181E3
:102C4000704765480068401C6349086070476248E7
:102C500000687047012080F3138800BF00BF5F4801
:102C6000006800F4E0605E490843001D5B490860AD
:102C7000BFF34F8F00BF00BFFEE700B5FFF7E1FFD6
:102C800000BD08B5002000900121684600F0ACF8B6
:102C900008BD70B505460E4600240DB9601E70BD16
:102CA00000241BE0295D4F48FFF75CFE00BF402178
:102CB0004C48FFF7C5FE0028F9D0022C0DD3285D43
:102CC000FF280AD155214748FFF74CFE00BF40219D
:102CD0004448FFF7B5FE0028F9D0641CB442E1D3A4
:102CE0003046DCE7180100204576743A2045564509
:102CF0004E545F6375727461696E202564200A000A
:102D0000B0812142435552545F4F4E2000000000D5
:102D1000435552545F4F4646000000004576743AD2
:102D2000204556454E545F6C616D706C69676874E0
:102D3000202564200A0000004C414D505F4F4E207A
:102D4000000000004C414D505F4F4646000000001F
:102D500000000020525353492025640A000000005F
:102D60005452414E53504152454E545F4441544198
:102D7000200A0000574946495F4E5450203A205BD4
:102D800025642D25642D256420253032643A2530B4
:102D900032643A253032645D5B25645D200A0000B0
:102DA0004D4F44554C4520494E464F202E2E2E0A5D
:102DB00000000000574946204D4F44554C45202EF9
:102DC0002E2E0A006D6F64756C6554797065203A1B
:102DD000205B25645D200A003C0000200CED00E033
:102DE0000000FA050048004070B504460D46002674
:102DF00024B9F2A002F0AAF9701E70BD2A4621463D
:102E0000F64802F045F90646AE4205D0F4A002F0BD
:102E10009DF94FF0FF30F0E73046EEE710B504467D
:102E20002CB9F6A002F092F94FF0FF3010BD00204F
:102E300020606060FF20207060700020F6E770B5B1
:102E400004460D462CB9F8A002F080F94FF0FF308F
:102E500070BD2021FA4802F047FB2A462146F84877
:102E6000801C02F0CAFAF6483D38A0F857500121FC
:102E700080F83E10FFF7EBFEF1493D39C1F85900EB
:102E80000020E5E7F8B505460C4616460DB104B13D
:102E90002EB9ECA002F05AF94FF0FF30F8BD2878B7
:102EA00000F0010098B111212278601C8154207833
:102EB000401C207001206B1C024600210090084637
:102EC00001F0ABFF08B1012000E00020307028784D
:102ED000C0F3400098B112212278601C8154207800
:102EE000401C207001206B1C02460146009000200F
:102EF00001F093FF08B1012000E000207070002075
:102F0000CCE72DE9F04104460D460026002704B128
:102F100035B9D7A002F01AF94FF0FF30BDE8F081C3
:102F2000FFF795FE074628782178884203D0DAA07B
:102F300002F00CF9012668786178884203D0DCA0A1
:102F400002F004F90126D5F80200D4F802108842F4
:102F50000AD0DD480068381A41F27071884203D304
:102F6000DAA002F0F3F80126D5F80600D4F806102E
:102F700088420AD0D4480068381A41F270718842F9
:102F800003D3D9A002F0E2F80126012E03D1FFF706
:102F90005EFECD4908603046C0E738B505460C46B0
:102FA00005B12CB9D6A002F0D1F84FF0FF3038BDF2
:102FB0000020207028782346012200210090084636
:102FC00001F08CFF68782346012211460090002012
:102FD00001F084FF0121204601F01AFED5F80220FD
:102FE0000021012001F02DFE6070D5F8062000219F
:102FF000012001F026FEA0700020D8E72DE9F0475F
:1030000080460C4617461D46089E94F800900CB169
:1030100005B136B9C6A002F099F84FF0FF30BDE80F
:10302000F087B8F1000F56D114218548203002F006
:103030005BFAB9F1010F06D0B9F1020F12D0B9F164
:10304000050F46D125E07E4A7332A2F15301601C80
:10305000FFF718FF01207A493D390870002500204C
:10306000306037E07649703101F10D00FFF795FFD0
:1030700058B9734870300188A5F801108078E8705D
:10308000032028700420306002E04FF0FF30C6E7D4
:1030900020E07A1E611C6A48243802F0AEF9781EDE
:1030A00067493D39C1F83100102165483D3890F835
:1030B0005D205E3081545E3890F85D00401C6049B0
:1030C0003D3981F85D000320087000250020306044
:1030D00000E000BF00BF0020A1E72DE9F04F8DB058
:1030E00006468B461746994600200C90824680463D
:1030F00000256C46BBF1000F06D199A002F026F81E
:10310000681E0DB0BDE8F08FB9F1010F06D196F839
:10311000088008F10600384485B201E0781D85B2C8
:103120002B464246394694A002F010F8FF2004F8DE
:10313000010B04F8010B281204F8010B04F8015BE1
:103140003079401C04F8010B707904F8010B002061
:1031500004F8010B04F8019B4FF0080AB9F1010FC4
:103160000CD104F8018B0AF1010A0DEB0A0042466A
:1031700006F1090102F041F9C24444442FB10DEBBC
:103180000A003A46594602F038F9291D684601F00E
:1031900073FB0146E81C0DF80010291D6846FFF777
:1031A00078FD0C900C98002806DA7DA00C9901F0AF
:1031B000CDFF6FF00100A4E7FEE000004552523A57
:1031C0002067697A50757444617461206275662065
:1031D000697320656D707479200A00003402002044
:1031E0004552523A204661696C656420746F2072C2
:1031F000625772697465200A000000004552523A15
:103200002067697A50726F746F636F6C4865616490
:10321000496E6974206865616420697320656D700A
:103220007479200A000000004552523A206461740B
:103230006120697320656D707479200A00000000B8
:103240005F01002067697A44617461506F696E7430
:10325000324576656E74204572726F72202C20495B
:103260006C6C6567616C20506172616D0A000000D2
:1032700067697A436865636B5265706F7274204545
:1032800072726F72202C20496C6C6567616C2050E3
:103290006172616D0A00000076616C75656375721C
:1032A0007461696E204368616E6765640A0000009E
:1032B00076616C75656C616D706C696768742043CC
:1032C00068616E6765640A004000002076616C7575
:1032D0006574656D706572617475726520436861AF
:1032E0006E6765640A00000076616C756568756DCF
:1032F0006964697479204368616E6765640A0000D7
:1033000067697A44617461506F696E747332526593
:10331000706F727444617461204572726F72202CF8
:1033200020496C6C6567616C20506172616D0A00A8
:1033300067697A50726F746F636F6C4973737565E8
:103340006450726F63657373204572726F72202CC4
:1033500020496C6C6567616C20506172616D0A0078
:103360005B4552525D202064617461204973204E98
:10337000756C6C200A0000006C656E203D20256491
:10338000202C20734469644C656E203D2025642008
:103390002C646174615F6C656E203D2025640A00B9
:1033A00075617274207772697465206572726F72CC
:1033B000202564200A0000000020A2E62DE9FF413C
:1033C00005460E461746002436B9FBA001F0BEFEA6
:1033D000601E04B0BDE8F0816846FFF71FFD0520C0
:1033E0008DF80400FE4890F83510D0F83500401CE8
:1033F000FB4AC2F83500C8B28DF805008DF80850B8
:10340000092001F04CFAADF802003A4631460DF1C0
:10341000090001F0F2FF0D21684601F02DFA8DF848
:103420000C000D216846FFF734FC0446002C06DA38
:103430002146ECA001F08AFE6FF00100C9E70D21E2
:103440006846FFF7FCFC2046C3E770B50446FFF76B
:10345000FEFB0546E249BA312046FFF752FD01283E
:1034600017D1E7A001F072FEDD49AD312046FFF72C
:1034700094FD28B90322DA49AD310420FFF79EFFFD
:10348000D7484230216881676168C1672189A0F807
:103490008010E148B5FBF0F100FB1150E8B9DF48BE
:1034A0000068A84219D0DEA001F050FECC49AD3131
:1034B0002046FFF772FD28B90322C949AD31042027
:1034C000FFF77CFFC6484230216881676168C167A9
:1034D0002189A0F88010D148056070BD2DE9FE4F0C
:1034E00080460E4617464FF0000B002002908146A2
:1034F0008246002534460090B8F1000F01D006B195
:1035000037B9CDA001F022FE4FF0FF30BDE8FE8FAD
:10351000404601F041FD00F0FF0ABAF1000F02D170
:103520004FF0FF30F2E74FF000095DE0012201A902
:10353000404601F05CFD8346BBF1000F52D0CA4803
:103540000078FF281FD19DF80400FF281BD1C74831
:10355000007848B9FF20207060700220C4490880BC
:103560000120C249087034E0C1480088042830DDD9
:10357000BF480088A8422CD0FF2020706070022035
:10358000BB49088025E0B8480078FF2803D19DF8A2
:10359000040055281DD0B5480078012819D19DF8A0
:1035A0000400B34909886054B1480088401CB04900
:1035B00008800846008804280BDD0094009C608881
:1035C00001F06DF9001D85B2A9480088A84200D11C
:1035D0000CE09DF80400A4490870A6480078401C3F
:1035E000A449087009F10109D1459FDB00BFA0483B
:1035F0000088042823DD9E480088A8421FD19C48EB
:103600000188204601F038F9029099480088401E50
:10361000215C029881420FD12A462146304601F0B2
:10362000ECFE3D8000209149087091490880914945
:1036300008708D49087069E76FF0010066E70120A6
:1036400064E710B50024664890F83E0000B910BD4C
:1036500089A001F07BFD6248B0F857103F30FFF7BA
:1036600018FB04465E48B0F85700A04202D08AA07A
:1036700001F06CFDFFF7EBFA5949C1F8590000BFA2
:10368000E5E770B50446564D3F3534B9AFF26840B2
:1036900001F05CFD4FF0FF3070BD2879401C2179AE
:1036A000884204D120214E483D3001F01DFF00200A
:1036B000F2E73EB50446002524B97DA001F046FDA1
:1036C000681E3EBD20680090606801909DF804006F
:1036D000401CC0B28DF80400052001F0E0F8ADF800
:1036E00002000921684601F0C7F88DF80800092199
:1036F0006846FFF7CEFA0546002D03DA294639A0C1
:1037000001F024FD2846DCE710B5354890F83E006E
:10371000012827D1324890F83D0002281DDAFFF732
:1037200096FA2F49D1F85910401AC8281AD9FFF72C
:103730008EFA04462A4890F83D30D0F859202146A8
:1037400066A001F003FDFFF77CFF254890F83D00DF
:10375000401C234981F83D0004E0202120483D30F1
:1037600001F0C2FE10BD30B59DB0044600252CB955
:1037700064A001F0EBFC681E1DB030BD6846FFF789
:103780004DFB02208DF8040060798DF8050069A1D9
:1037900003C9CDE902016AA103C9CDE904016BA106
:1037A00003C9CDE908016CA103C9CDE906012022B6
:1037B0006CA10AA8E8E0000067697A5265706F7230
:1037C0007444617461204572726F72202C20496CC0
:1037D0006C6567616C20506172616D0A00000000C9
:1037E000220100204552523A20756172742077728E
:1037F000697465206572726F72202564200A00006A
:103800006368616E6765642C207265706F727420E6
:10381000646174610A000000C027090044000020B0
:10382000496E666F3A2036303053207265706F7281
:103830007420646174610A0067697A50726F746FF2
:10384000636F6C4765744F6E655061636B65742080
:103850004572726F72202C20496C6C6567616C2018
:10386000506172616D0A00004C0000204800002089
:103870004A0000204D0000205761726E696E673A61
:103880002074696D656F75742C20726573656E6444
:103890002064617461200A004552523A20726573B7
:1038A000656E642064617461206572726F720A00D3
:1038B0004552523A2067697A50726F746F636F6C29
:1038C000436F6D6D6F6E41636B206461746120693D
:1038D0007320656D707479200A0000005761726E64
:1038E000696E673A67697A50726F746F636F6C5272
:1038F0006573656E644461746120256420256420CD
:1039000025640A0067697A50726F746F636F6C4741
:103910006574446576696365496E666F20457272A9
:103920006F72202C20496C6C6567616C205061724D
:10393000616D0A003030303030303034000000002B
:10394000303030303030303200000000303330332F
:103950003030303000000000303330313031303022
:103960000000000034666535643536353261303527
:10397000346436306130633034373465393663321D
:10398000316562340000000001F07CFD2022F9A1C5
:103990000DF1520001F031FD0020CDF84A00CDF8C4
:1039A0004E009DF851008DF851009DF8510040F0F7
:1039B00002018DF85110002000F071FFADF84800B1
:1039C0006F2000F06CFFADF802007321684600F034
:1039D00053FF8DF8720073216846FFF75AF90546C8
:1039E000002D04DA2946AFF2042001F0AFFB28468F
:1039F000C2E6FEB504460E46002524B9E6A001F055
:103A0000A5FB681EFEBD6846FFF708FA12208DF878
:103A1000040060798DF80500062000F040FFADF845
:103A200002008DF808600A21684600F025FF8DF835
:103A300009000A216846FFF72CF90546002D04DA33
:103A40002946AFF2602001F081FB2846DAE770B525
:103A5000044625462CB9DBA001F078FB4FF0FF307F
:103A600070BDDD48A9680160E9684160298A01816B
:103A7000A97C8172A0F1C501B1F8C50000F00FFF6B
:103A8000D549C539A1F8C500D1F8CD0000F014FF23
:103A9000D149C539C1F8CD000E21CF48C53890F8BD
:103AA000852086308154863890F88500401CCA49AC
:103AB000C53981F88500042008700020D0E710B5D2
:103AC000FFF7C5F8044600BFFFF7C1F8001BB0F5CB
:103AD000167FF9D9FFF7BEF810BD10B504462CB912
:103AE000BEA001F033FB4FF0FF3010BD208900F085
:103AF000D6FE2081C5480078C0F38000217AC1F34A
:103B0000800188425ED0207AC0F3800000282DD04A
:103B1000207A00F0010088B10021AF48C53890F844
:103B2000712072308154723890F87100401CAA499B
:103B3000C53981F87100B6A001F008FB207AC0F306
:103B4000400000283ED00121A348C53890F87120DC
:103B500072308154723890F87100401C9E49C5390A
:103B600081F87100B2A001F0F1FA2BE0207A00F0A8
:103B7000010088B100219848C53890F87120723052
:103B80008154723890F87100401C9349C53981F80E
:103B900071009FA001F0DAFA207AC0F3400088B1EA
:103BA00002218D48C53890F87120723081547238E6
:103BB00090F87100401C8849C53981F87100A3A0B4
:103BC00001F0C4FA91480078C0F3C000217AC1F333
:103BD000C001884230D0207AC1088C48007861F357
:103BE000C3008A490870207AC0F3C00090B1032155
:103BF0007948C53890F8712072308154723890F845
:103C00007100401C7449C53981F8710096A001F01B
:103C10009DFA11E004217048C53890F87120723087
:103C20008154723890F87100401C6B49C53981F895
:103C3000710095A001F08AFA74480078C0F3001072
:103C4000217AC1F30011884230D0207A01096F48EF
:103C5000007861F304106D490870207AC0F30010F9
:103C600090B105215C48C53890F8712072308154BC
:103C7000723890F87100401C5749C53981F87100BD
:103C800089A001F063FA11E006215348C53890F885
:103C9000712072308154723890F87100401C4E4986
:103CA000C53981F8710088A001F050FA57480078B2
:103CB000C0F34010217AC1F34011884230D0207AFD
:103CC00041095248007861F3451050490870207A44
:103CD000C0F3401090B107213F48C53890F87120DB
:103CE00072308154723890F87100401C3A49C539DD
:103CF00081F871007DA001F029FA11E00821364811
:103D0000C53890F8712072308154723890F8710083
:103D1000401C3149C53981F871007BA001F016FAC9
:103D20003A484078C0F3C001607AC0F3C0008142D5
:103D30001DD0607AC1083548407861F3C30033492B
:103D40004870607AC0F3C00090B10B212248C5389A
:103D500090F8712072308154723890F87100401CD4
:103D60001D49C53981F871006FA001F0EFF9F9E044
:103D7000E8E0000032636165363639316239356218
:103D80003462303538363933363065663031386133
:103D9000636662660000000067697A50726F746F34
:103DA000636F6C4572726F72436D64204572726FFF
:103DB00072202C20496C6C6567616C2050617261C7
:103DC0006D0A00004552523A204E5450206973202B
:103DD000656D707479200A00E701002067697A50E8
:103DE000726F746F636F6C4D6F64756C6553746143
:103DF000747573204572726F72202C20496C6C654B
:103E000067616C20506172616D0A00004E000020F5
:103E10004F6E426F617264696E673A20536F6674C9
:103E20004150206F7220576562206D6F64650A00F3
:103E30004F6E426F617264696E673A204169724CDD
:103E4000696E6B206D6F64650A0000004F6E426FF3
:103E5000617264696E673A2053746174696F6E2091
:103E60006D6F64650A0000005769466920737461CC
:103E70007475733A20696E2062696E64696E67209A
:103E80006D6F64650A0000005769466920737461AC
:103E90007475733A206F75742062696E64696E6719
:103EA000206D6F64650A000057694669207374616C
:103EB0007475733A20636F6E6E6563746564207207
:103EC0006F757465720A00005769466920737461E2
:103ED0007475733A20646973636F6E6E656374659D
:103EE0006420726F757465720A0000005769466934
:103EF000207374617475733A20636F6E6E656374BA
:103F00006564206D326D0A005769466920737461DB
:103F10007475733A20646973636F6E6E656374655C
:103F200064206D326D0A0000576946692073746120
:103F30007475733A2061707020636F6E6E65637480
:103F40000A0000000C21FD4890F871207230815465
:103F5000723890F87100401CF84981F87100F8A09F
:103F600001F0F4F8FE484078C0F30011607AC0F325
:103F7000001081422CD0607A0109F948407861F341
:103F80000410F7494870607AC0F3001080B109212D
:103F9000EA4890F8712072308154723890F87100BC
:103FA000401CE64981F87100EEA001F0CFF80FE067
:103FB0000A21E24890F8712072308154723890F8EA
:103FC0007100401CDD4981F87100EDA001F0BEF8E0
:103FD0000D21DA4890F8712072308154723890F8CF
:103FE0007100401CD54981F87100607A00F007002B
:103FF00081F8C400084690F8C410E8A001F0A6F8C3
:104000000220CE49087000206FE510B53020E74946
:104010000860E748C860084600F0A0FF18B9E5A0AE
:1040200001F094F802E0E8A001F090F84FF48971F3
:10403000C24801F059FA10BD30B587B005460024DA
:10404000062D7DD2DFE805F003316193C1F001A8B0
:10405000FEF7E4FE0B208DF80800B84890F8351004
:10406000D0F83500401CB54AC2F83500C8B28DF80A
:104070000900052000F013FCADF80600092101A895
:1040800000F0FAFB8DF80C00092101A8FEF701FEF3
:104090000446002C04DA2146AFF6B80001F056F8C9
:1040A000092101A8FEF7CBFEF0E004A8FEF7B6FE5A
:1040B00009208DF81400A14890F83510D0F835008B
:1040C000401C9E4AC2F83500C8B28DF815008DF824
:1040D0001850062000F0E3FBADF812000A2104A8F6
:1040E00000F0CAFB8DF819000A2104A8FEF7D1FDE3
:1040F0000446002C04DA2146AFF6181001F026F829
:104100000A2104A8FEF79BFEC0E004A8FEF786FE85
:1041100009208DF81400894890F83510D0F8350042
:10412000401C864AC2F83500C8B28DF815008DF8DB
:104130001850062000F0B3FBADF812000A2100E091
:10414000A0E004A800F098FB8DF819000A2104A84B
:10415000FEF79FFD0446002C04DA2146AFF67C10E2
:1041600000F0F4FF0A2104A8FEF769FE8EE001A822
:10417000FEF754FE13208DF80800704890F83510B3
:10418000D0F83500401C6D4AC2F83500C8B28DF831
:104190000900052000F083FBADF80600092101A805
:1041A00000F06AFB8DF80C00092101A8FEF771FDF3
:1041B0000446002C04DA2146AFF6D81000F0C6FF02
:1041C000092101A8FEF73BFE60E001A8FEF726FEEC
:1041D00015208DF80800594890F83510D0F83500B2
:1041E000401C564AC2F83500C8B28DF809000520B7
:1041F00000F055FBADF80600092101A800F03CFBDA
:104200008DF80C00092101A8FEF743FD0446002C9F
:1042100004DA2146AFF6342000F098FF092101A806
:10422000FEF70DFE32E0FFE701A8FEF7F7FD2920BB
:104230008DF80800414890F83510D0F83500401C42
:104240003E4AC2F83500C8B28DF80900052000F0DA
:1042500026FBADF80600092101A800F00DFB8DF842
:104260000C00092101A8FEF714FD0446002C04DA15
:104270002146AFF6902000F069FF092101A8FEF762
:10428000DEFD03E055A000F061FF00BF00BF204647
:1042900007B030BD3EB500246846FEF7BFFD1720CD
:1042A0008DF80400254890F83510D0F83500401CF2
:1042B000224AC2F83500C8B28DF80500052000F08A
:1042C000EEFAADF802000921684600F0D5FA8DF843
:1042D000080009216846FEF7DCFC0446002C03DADE
:1042E000214644A000F032FF09216846FEF7A7FDF1
:1042F0003EBD3EB500246846FEF790FD21208DF8B6
:1043000004000E4890F83510D0F83500401C0B4AD8
:10431000C2F83500C8B28DF8050000208DF80800FD
:10432000062000F0BCFAADF802000A21684600F051
:10433000A3FA8DF809000A2168466BE022010020EB
:1043400057694669207374617475733A206E6F20E3
:1043500061707020636F6E6E6563740A0000000008
:104360004E00002057694669207374617475733A72
:1043700020696E2074657374206D6F64650A000097
:1043800057694669207374617475733A206F757448
:104390002074657374206D6F64650A00525353492D
:1043A000206973202564200A0000000034020020E8
:1043B0004402002072624372656174652053756324
:1043C00063657373200A00007262437265617465ED
:1043D000204661696C64200A000000004552523A90
:1043E000204366674D6F6465206572726F72210AA3
:1043F000000000004552525B4E54505D3A207561FA
:104400007274207772697465206572726F722025EC
:1044100064200A00FEF73DFC0446002C04DA214625
:10442000AFF2300000F092FE0A216846FEF707FD69
:104430003EBD70B5044625462CB9C3A000F086FEEB
:104440004FF0FF3070BD412205F10801C24800F075
:10445000D4FF0F21C048D13890F899209A30815468
:104460009A3890F89900401CBB49D13981F89900DD
:10447000052008700020E5E72DE9F04190B00546E1
:10448000002600200390029000248046002735B9C2
:10449000B2A000F05BFE601E10B0BDE8F081FFF737
:1044A00033F903AAAC49D039B648FFF717F80646E6
:1044B000002E72D1B4A000F049FEA74CD03C207968
:1044C0000F284FD00ADC0E2873D2DFE800F07216F6
:1044D000721A7272433872724472453C182852D074
:1044E00006DC112847D0142846D0162861D134E0C4
:1044F000222854D02A285CD130E02046FFF733F937
:104500005FE0E279A179A5A000F020FE02A800906A
:1045100007F10900BDF80C301A1A8F48C838C119C4
:1045200004AB4046FEF76AFD40B9E37904A9204692
:10453000029AFEF7D2FD9DA000F008FE41E0204661
:10454000FFF7B7F83DE02046FFF7B3F82046FFF746
:10455000C4FA36E000BF00BF00BF00BF2046FFF72F
:1045600090F82EE02046FFF7A4F893A000F0EEFDAF
:10457000FFF7A5FA25E024E02046FFF782F893A094
:1045800000F0E4FD1DE02046FFF77BF82046FFF732
:104590005EFA96A000F0DAFD13E013E009E0204691
:1045A000FFF76FF82046FFF744FF96A000F0CEFD1E
:1045B00007E002212046FFF71CFA99A000F0C6FD93
:1045C00000BF0EE016F1020F0BD1634CD03C01216D
:1045D0002046FFF70EFA98A000F0B8FD6FF001003A
:1045E0005AE75D48D1380078062850D2DFE800F05D
:1045F0004F0313232F3F00205749D13908700A2257
:10460000B031A1F15300FEF775FA14215248743805
:1046100000F06AFF3CE000204F49D13908700122C8
:10462000C431A1F15300FEF765FA14214A486038FD
:1046300000F05AFF2CE000204749D13908700846A5
:10464000D0F8312019315D30FEF754FA20E0002017
:104650004149D13908700C22C531A1F14000FEF763
:1046600049FA14213C484C3800F03EFF10E000208D
:104670003949D13908704122D131A1F13800FEF712
:1046800039FA41213448383800F02EFF00E000BFED
:1046900000BF2846FEF7D9FE0020FDE62DE9F041D7
:1046A00086B006460F464FF000086C46B81D85B22E
:1046B0003EB967A000F04AFD4FF0FF3006B0BDE8FC
:1046C000F081FF2004F8010B04F8010B281204F814
:1046D000010B04F8015B052004F8010B1E48D138DA
:1046E00090F83510D0F83500401C1B4AD13AC2F87A
:1046F000350004F8011B002004F8010B04F8010B3D
:10470000062004F8010B3A4631460DF1090000F08D
:1047100074FE291D684600F0AFF80146E81C0DF84C
:104720000010291D6846FEF7B4FA8046B8F1000F64
:1047300004DA4146AFF6547000F008FD291D6846C2
:10474000FEF77DFB0020B9E74E54502069732065C9
:104750006D707479200A0000F301002047697A77B0
:1047600069747348616E646C65204572726F722063
:104770002C20496C6C6567616C20506172616D0A18
:104780000000000034020020476574204F6E652051
:104790005061636B6574210A00000000666C6167FC
:1047A000202578202578200A0000000041636B4412
:1047B000617461203A200A007265706F72743A4D1C
:1047C0004355207265626F6F74210A0041636B204C
:1047D00050524F44554354494F4E5F4D4F4445202E
:1047E00073756363657373200A00000041636B2077
:1047F0004745545F55545420737563636573732044
:104800000A00000041636B204745545F4D6F64759B
:104810006C652073756363657373200A0000000084
:104820004552523A20636D6420636F64652065725F
:10483000726F72210A0000004552523A2063686587
:10484000636B2073756D206572726F72210A0000B0
:104850005B4552525D2067697A7769747350617362
:10486000737468726F756768446174612045727211
:104870006F72200A0000000010B5024600240023D9
:1048800002B109B9002010BD022303E0D05C20442E
:10489000C4B25B1C481E9842F8D82046F3E701B525
:1048A00081B000200090694601AA50780870107805
:1048B0004870BDF800000CBD0146080601F47F42B7
:1048C00040EA022001F47F0240EA122040EA11602F
:1048D000704710B502460024302A05DB392A03DC74
:1048E000A2F13000C3B20EE0412A05DB462A03DC08
:1048F000A2F13700C3B206E0612A04DB662A02DCBB
:10490000A2F15700C3B2302905DB392903DCA1F13C
:104910003000C4B20EE0412905DB462903DCA1F1D9
:104920003700C4B206E0612904DB662902DCA1F18C
:104930005700C4B204EB0310C0B210BD70B50446FA
:1049400000250026204600F039FD06460CB9681EF9
:1049500070BD002505E0605D302801D00020F7E73C
:104960006D1CB542F7D30120F2E72DE9F043034671
:1049700000BF0025002400260027012901D00229BC
:104980000DD1A3F1010C4FF06408BCFBF8F4BCFBA3
:10499000F8F908FB19C501F10C06174609E04FF0BC
:1049A000640CB3FBFCF4B3FBFCF80CFB18350E46AF
:1049B000174606F1010C4FF01A080CFB08FC4FF0EB
:1049C0000A08BCFBF8FC05EB950808EB94084FF0CF
:1049D000020909FB1488C444BC44ACF1010000285E
:1049E00006DB4FF0070C90FBFCF80CFB180C07E003
:1049F0004FF0070C90FBFCF80CFB180C0CF1070CAB
:104A00006046BDE8F08301460A46C81701EB907086
:104A10008010A1EB800070B9642091FBF0F300FBE3
:104A2000131030B94FF4C87091FBF0F300FB131072
:104A300008B9012070470020FCE710B50446204665
:104A4000FFF7E1FF10B14FF4B77010BD40F26D10E9
:104A5000FBE72DE9F04190B080460E4640F2B2757A
:104A60003022694901A800F00DFD344604F5E14407
:104A700000BF11E02846FFF7E0FF074640F2A32001
:104A80007843B4EBC01F06D340F2A3207843A4EBD5
:104A9000C0146D1C00E001E0002CEBD100BFA8B2F7
:104AA000ADF83400002518E0BDF83400FFF7ABFF87
:104AB00008B11D20029001A850F8250040F2A32162
:104AC0004843B4EBC01F07D301A850F82500484362
:104AD000A4EBC0146D1C00E001E0002CE4D100BF89
:104AE0001C200290681CC0B28DF83600012506E03B
:104AF0004648844202D3241A6D1C00E001E0002CD9
:104B0000F6D100BFE8B28DF837004FF46160B4FB16
:104B1000F0F0C0B28DF838004FF46160B4FBF0F1F2
:104B200000FB11403C21B0FBF1F0C0B28DF8390020
:104B30003C20B4FBF0F100FB11408DF83A00CDF8B9
:104B40003B600D98C8F800000E98C8F80400BDF846
:104B50003C00A8F808009DF83E0088F80A0010B054
:104B6000BDE8F0812DE9F05F80460E4691460024B5
:104B70001CE016F814A06000401C16F800B0504667
:104B800000F0D4FA3038C5B2092D01DDE81FC5B2F6
:104B9000584600F0CBFA3038C7B2092F01DDF81FB4
:104BA000C7B207EB051008F80400641C4C45E0DBB5
:104BB000BDE8F09FF0B5034600201EE00E5CF7173D
:104BC00006EB17773F1107F130050E5CF71706EB80
:104BD00017773F11A6EB07173037FCB2392D01DDEF
:104BE000EE1DF5B2392C01DDE61DF4B203F81050CC
:104BF000012606EB40069C55401C9042DEDB002659
:104C000003F81260F0BD00009866000880510100B2
:104C100030B502460B460021002400250AB9481E83
:104C200030BD002108E0545C581A401E155C5554F4
:104C3000581A401E1454491CB1EB530FF3D30020F3
:104C4000EEE710B503460020541AB4FBF3F010BD94
:104C500010B50346002002FB031010BD2DE9F047FC
:104C600004460E46154600273146284600F0D2FF7E
:104C70008146214600F00CFE804600F0CBFE074640
:104C80003846BDE8F0872DE9F04704460E46154644
:104C90000027284600F0DEFE8146214600F0EEFEA9
:104CA0008046314600F092FD07463846BDE8F08761
:104CB000024612B102F0070028B9082901D80020E5
:104CC00070470120FCE702F00700C0F108008842AD
:104CD00001D30020F4E70120F2E72DE9F047054673
:104CE000884614461E464FF00009CA460027002396
:104CF00014B9581EBDE8F087EB0841462846FFF777
:104D0000D7FF07463FB9E05C05F0070106FA01F15D
:104D10000843E0541DE0012F1BD1F0B205F007015C
:104D2000C1F1080140FA01F905F00700C0F10801DE
:104D3000FF20084100EA060A581C205C40EA0900EE
:104D4000591C6054E05C05F007010AFA01F10843C0
:104D5000E0540020CEE72DE9F04F8FB004460F4617
:104D600090461D460026B246B146B34600200E903E
:104D7000B8F1000F00D025B94FF0FF300FB0BDE8FB
:104D8000F08F4FEAD4092A46414601A800F035FBCE
:104D9000012D09D9294601A8FFF73AFFB0F1FF3FDD
:104DA00002D14FF0FF30E9E739462046FFF780FF98
:104DB0008246BAF1000F0CD101A810F8090004F0E6
:104DC00007010841C7F10802FF21114108400643CD
:104DD00021E0BAF1010F1ED101A909F10100085C1F
:104DE00004F00701C1F10801791AC1F10802FF219D
:104DF000114100EA010B01A810F8090004F00701B5
:104E000008410E9004F00700C0F108010BFA01F010
:104E100006430E9806433046B0E72DE9F04F8FB0B9
:104E200005460C4616469946189F4FF0000AD34691
:104E300000200E908046B9F1000F00D027B94FF046
:104E4000FF300FB0BDE8F08F3A46494601A800F0A8
:104E5000D4FA012F09D9394601A8FFF7D9FEB0F1DC
:104E6000FF3F02D14FF0FF30EBE731462046FFF71E
:104E70001FFF8246BAF1000F0CD101A8405D04F07B
:104E800007010841C6F10802FF211141084040EA2C
:104E9000080821E0BAF1010F1ED101A9681C085CC5
:104EA00004F00701C1F10801711AC1F10802FF21E4
:104EB000114100EA010B01A8405D04F0070108411F
:104EC0000E9004F00700C0F108010BFA01F040EA6F
:104ED00008080E9848EA00084046B2E72DE9F04776
:104EE00004460D461746089E4FF00009CA46C846BC
:104EF0001BB94FF0FF30BDE8F08739462846FFF771
:104F0000D7FE8046B8F1000F07D1185D05F0070104
:104F100006FA01F1084318551EE0B8F1010F1BD144
:104F2000F0B205F00701C1F1080140FA01F905F0FE
:104F30000700C0F10801FF20084100EA060A601CD2
:104F4000185C40EA0900611C5854185D05F007011F
:104F50000AFA01F1084318550020CCE7014611B9BF
:104F60004FF0FF307047C8684860C868886000200C
:104F7000F8E7014611B94FF0FF3070470020C860D4
:104F800048608860086000BFF7E7014611B94FF03C
:104F9000FF3070470868FCE700B5024612B94FF0D1
:104FA000FF3000BD50689168884201D10020F8E7C9
:104FB00050689168884203D290685168401AF0E7BF
:104FC0001046FFF7E2FF51689368C91A401AE8E7F4
:104FD00030B5044614B94FF0FF3030BD2046FFF71E
:104FE000D4FF05462046FFF7D7FF281AF5E72DE93D
:104FF000F04104460F461646002514B9681EBDE868
:10500000F08117B94FF0FF30F9E76068A168884276
:1050100014D22046FFF7C0FFB04201D9304602E06B
:105020002046FFF7B9FF054661682A46384600F07A
:10503000E4F96068284460602846E0E72046FFF70E
:10504000A4FF6168E268891A401AB0420AD935465D
:1050500061682A46384600F0D0F9606828446060EC
:105060002846CCE72046FFF790FF6168E268891A7E
:10507000451A61682A46384600F0BFF9E06860606A
:10508000721B79192046FFF7B2FF05442846B6E7A0
:105090002DE9F04104460F461546002604B11FB91C
:1050A0004FF0FF30BDE8F0812046FFF791FFA842A6
:1050B00002D86FF00100F5E76068A16888422AD83D
:1050C0002046FFF762FFA168E268891A461AB542D6
:1050D00013D8A0682A46394600F08FF9A068284402
:1050E000A0602046FFF751FFE1680844A1688842AC
:1050F00001D1E068A0602846D4E7A068324639466E
:1051000000F07BF9E068A060AA1BB9192046FFF700
:10511000BFFF3044C6E7A0682A46394600F06DF963
:10512000A0682844A0602846BCE7704710B5044634
:1051300000F000FA0068005D000704D5DF2C02D003
:10514000A4F1200010BD204610BD00000FB404499A
:1051500010B503AA029800F04FFA10BC5DF814FBDA
:105160002000002070B5044685690068C10601D59D
:10517000302600E02026C00707D070BDD4E9012109
:1051800030469047206A401C20626D1EF6D570BDE7
:1051900070B5044685690078C00707D170BDD4E9B1
:1051A000012120209047206A401C20626D1EF6D508
:1051B00070BD00002DE9F0410646002410687529F5
:1051C000314616A510D0AFF30080002802DA404225
:1051D00013A507E031688A0701D512A502E0490747
:1051E00004D511A5012401E0AFF3008000210A22BB
:1051F00006F1240709E0B0FBF2FCB0FBF2F302FB7E
:105200001C00303078541846491C0028F3D123463E
:105210002A463046BDE8F04100F094B90000000095
:105220002D0000002B0000002000000070B5044697
:105230000D4621461068AFF300802188090502D58C
:105240000F4A7A4402E00E4A7A440E32002104F1F9
:10525000240305E000F00F060009965D5E54491C2A
:105260000028F7D120780023000704D5702D02D044
:1052700009B1022311322046BDE8704000F062B946
:10528000821400002DE9F05F894604464FF0000AC1
:10529000DFF824B1FB44C0F820A02046E16888472D
:1052A00000287DD0252806D0D4E901219047206A26
:1052B000401C2062F1E700255F462046E1688847F0
:1052C0002028064607DB312E05D2B81910F8200C2D
:1052D00008B10543F1E7A80701D525F00405C4F896
:1052E0001CA00027C4F818A02A2E09D0304600F0D0
:1052F0004FFA38B304EB8708303EC8F8186019E05D
:1053000059F8041B204604EB87029161E168884745
:10531000012F064618D1E069002820DA25F0200583
:105320001DE0D8F8180000EB800006EB4000303894
:10533000C8F818002046E1688847064600F028FAB9
:105340000028EED1012F0AD02E2E08D12046E16888
:1053500088477F1C0646022F45F02005C4DBA06964
:10536000002803DA404245F00105A061E80701D0BA
:1053700025F01005A6B1A6F14100192802D8203663
:1053800045F400654A463146204625604D46FAF709
:1053900009FF60B1012807D0ED1D25F0070000E0EE
:1053A00007E000F1080978E705F1040975E73046E0
:1053B0007AE7206ABDE8F09F5814000010B5431C3E
:1053C00002E010F8011B71B18107FAD14FF00132F0
:1053D00002C88C1A8C4314EAC211F9D0C01A0A060A
:1053E00003D0C01E10BDC01A10BD0A0401D0801E1B
:1053F00010BD0902FCD0401E10BD032A40F23080CF
:1054000010F0030C00F0158011F8013BBCF1020F05
:10541000624498BF11F801CB00F8013B38BF11F886
:10542000013BA2F1040298BF00F801CB38BF00F89D
:10543000013B11F0030300F02580083AC0F008801A
:1054400051F8043B083A51F804CBA0E80810F5E7FE
:10545000121D5CBF51F8043B40F8043BAFF30080E1
:10546000D20724BF11F8013B11F801CB48BF11F856
:10547000012B24BF00F8013B00F801CB48BF00F826
:10548000012B704710B5203AC0F00B80B1E81850DE
:10549000203AA0E81850B1E81850A0E81850BFF41E
:1054A000F5AF5FEA027C24BFB1E81850A0E81850BD
:1054B00044BF18C918C0BDE810405FEA827C24BF11
:1054C00051F8043B40F8043B08BF7047D20728BF9F
:1054D00031F8023B48BF11F8012B28BF20F8023BEE
:1054E00048BF00F8012B70474FF000020429C0F0BC
:1054F000128010F0030C00F09380CCF1040CBCF18E
:10550000020F18BF00F8012BA8BF20F8022BA1EB57
:105510000C0100F085B85FEAC17C24BF00F8012BC4
:1055200000F8012B48BF00F8012B70477047704707
:105530007047704710B500F099F8001D10BD00BF0E
:10554000610200002DE9F0470D4699469246044657
:1055500000F124080168880604D5E06921F01001F3
:10556000216000E00120A84201DD471B00E0002788
:10557000A1697A1902EB0900081AA0612078C00617
:1055800002D42046FFF7EEFD002608E0D4E9012111
:105590001AF806009047206A401C761C20624E458F
:1055A000F4DB2078C0060AD52046FFF7DBFD06E0D5
:1055B000D4E9012130209047206A401C2062381E27
:1055C000A7F10107F4DC07E0D4E9012118F8050090
:1055D0009047206A401C2062281EA5F10105F3DCDB
:1055E0002046FFF7D5FD2078000602D50220BDE851
:1055F000F0870120FBE70000074B70B50D467B44A8
:1056000000F03DF80446284600F04CF810B14FF089
:10561000FF3070BD204670BD77B9FFFF4FF000022C
:1056200000B5134694469646203922BFA0E80C5098
:10563000A0E80C50B1F12001BFF4F7AF090728BF73
:10564000A0E80C5048BF0CC05DF804EB890028BFEF
:1056500040F8042B08BF704748BF20F8022B11F018
:10566000804F18BF00F8012B7047000000487047BA
:105670009402002001694A1C02610878704700B555
:105680008FB0CDE901310021059105497944CDE97B
:10569000031011466846FFF7F5FD0FB000BD00008E
:1056A000E5FFFFFF007B00F0800070470048704777
:1056B000740200207546FFF7F9FFAE460500694603
:1056C000534620F00700854618B020B5FBF700FDD3
:1056D000BDE820404FF000064FF000074FF00008F3
:1056E0004FF0000B21F00701AC46ACE8C009ACE874
:1056F000C009ACE8C009ACE8C0098D46704710B5D8
:105700000446AFF300802046BDE81040FAF768BDBC
:105710004FF0013C50F8042B51F8043B9A4221D140
:10572000A2EB0C03934313EACC1317D150F8042BCC
:1057300051F8043B9A4215D1A2EB0C03934313EAB0
:10574000CC130BD150F8042B51F8043B9A4209D1E9
:10575000A2EB0C03934313EACC13DBD04FF0000011
:10576000704700BFD01A01BAB1FA81F101F01801F7
:1057700022FA01F0CB40C1F12001DBB2C0B2C01A65
:105780002CFA01F3D11A914311EAC311E6D1704703
:1057900030380A2801D201207047002070470000ED
:1057A00010B500290AD00878002807D005487844A9
:1057B000FFF7AEFF002801D0002010BD024878445A
:1057C00010BD0000760F00006E0F000090EA010F80
:1057D00048BF81F0004100F12482421A3CBF801A88
:1057E00089184FEAD0524FF07F4C1CEA410FA2EBD0
:1057F000D15318BF9CEA026F00F03B804FF0004C81
:105800004CEA00204CEA012121FA03FC10EB0C0CBD
:105810001ED202F1FF325FEA1C2040EBC25038BFBB
:1058200070471CF07F0F4FEA400C18BFBCF17F4F50
:1058300038BF7047C3F12003994008BF20F0010032
:10584000BCF17F4F38BF7047A0F1C04000F0DDB918
:105850004FEA3C00000A40EBC25028BF1CF0FF0F8B
:105860004FEA400CE6D018BFBCF17F4F38BF7047FD
:10587000EAE79CEA026F05D010EA5C0F08BF00F06F
:105880000040704710B500F07AF900BF64FBBE3EDF
:105890004FF47F0C1CEAD0121EBF1CEAD11392EA0F
:1058A0000C0F93EA0C0F00F0858090EA010F48BFBF
:1058B00042F4807240F4000C41F400002CF07F416F
:1058C00020F07F4000B58142A2EB03020FF2081CDA
:1058D000ACEB504EC0F100009EF800E04FEA4E0ED7
:1058E00000FB0EFC38BF49004FEA2C1C02F5FA02FF
:1058F0000CFB0EF34FEACE1E4FEA112C4FEAC121EA
:105900000EEB635E42EB22420EFB0CFC4FEA1C5393
:1059100000FB03114FEA112C4FEA01310EFB0CFC86
:105920004FEADC4C00FB0C11C14228BF09184CEBBC
:1059300003335DF804EB10EB410143EBC250B2F5C9
:105940007C0F38BF704729D512F0F00F1CBF00F153
:10595000C04000F0004070470081828384858687C4
:1059600088898B8C8D8E8F919293959697999A9C1E
:105970009D9FA0A2A3A5A7A8AAACAEB0B2B3B5B78D
:10598000B9BCBEC0C2C5C7C9CCCED1D4D7D9DCDF63
:10599000E2E6E9ECF0F3F7FAFE0000004FEA400C13
:1059A0000CF1807CBCF17E4F28BF7047B0F1C04045
:1059B00000F02BB990EA010F0CEAD11348BF42F472
:1059C0008072624538BF634507D213F47F0F16D04B
:1059D00080EA010000F00040704710B500F0CFF8F9
:1059E000097EFC3E00F005B880EA010000F00040AE
:1059F000704780EA010000F0004000F006B912F4A0
:105A00007F0F04BF0248704780EA010000F0FDB834
:105A10000000C07FC10DD1F19E0206DB4FEA0023DA
:105A200043F0004323FA02F07047004207D54FEAE3
:105A30004001B1F1FE4F02D24FF00000704710B5A7
:105A400000F09DF849922480002070476FEA200002
:105A500070470000B0FA80F310FA03F2C3F19D031F
:105A60000AD0D90501EB1220530638BF704700F168
:105A7000010008BF20F00100704700004FF47F0CC8
:105A80001CEAD0121EBF1CEAD11392EA0C0F93EA53
:105A90000C0F00F0478090EA010F48BF42F480727B
:105AA0004FF0004C4CEA00204CEA012102EB0302CB
:105AB000A0FB0113A2F50002002918BF43F0010367
:105AC0005B0028BF4FEA330342EB22425FEA132C0C
:105AD0004CEBC2502EBFBCEB436FB2F57C0F70474E
